{
  "contractName": "TSCBank",
  "abi": [
    {
      "constant": true,
      "inputs": [],
      "name": "owner",
      "outputs": [
        {
          "name": "",
          "type": "address"
        }
      ],
      "payable": false,
      "stateMutability": "view",
      "type": "function"
    },
    {
      "inputs": [],
      "payable": false,
      "stateMutability": "nonpayable",
      "type": "constructor"
    },
    {
      "payable": false,
      "stateMutability": "nonpayable",
      "type": "fallback"
    },
    {
      "anonymous": false,
      "inputs": [
        {
          "indexed": false,
          "name": "accountAddress",
          "type": "address"
        },
        {
          "indexed": false,
          "name": "amount",
          "type": "uint256"
        }
      ],
      "name": "LogDepositMade",
      "type": "event"
    },
    {
      "constant": false,
      "inputs": [],
      "name": "enroll",
      "outputs": [
        {
          "name": "",
          "type": "uint256"
        }
      ],
      "payable": false,
      "stateMutability": "nonpayable",
      "type": "function"
    },
    {
      "constant": false,
      "inputs": [],
      "name": "deposit",
      "outputs": [
        {
          "name": "",
          "type": "uint256"
        }
      ],
      "payable": true,
      "stateMutability": "payable",
      "type": "function"
    },
    {
      "constant": false,
      "inputs": [
        {
          "name": "withdrawAmount",
          "type": "uint256"
        }
      ],
      "name": "withdraw",
      "outputs": [
        {
          "name": "remainingBal",
          "type": "uint256"
        }
      ],
      "payable": false,
      "stateMutability": "nonpayable",
      "type": "function"
    },
    {
      "constant": true,
      "inputs": [],
      "name": "balance",
      "outputs": [
        {
          "name": "",
          "type": "uint256"
        }
      ],
      "payable": false,
      "stateMutability": "view",
      "type": "function"
    }
  ],
  "bytecode": "0x608060405234801561001057600080fd5b5033600160006101000a81548173ffffffffffffffffffffffffffffffffffffffff021916908373ffffffffffffffffffffffffffffffffffffffff160217905550610514806100616000396000f30060806040526004361061006d576000357c0100000000000000000000000000000000000000000000000000000000900463ffffffff1680632e1a7d4d1461007f5780638da5cb5b146100c0578063b69ef8a814610117578063d0e30db014610142578063e65f2a7e14610160575b34801561007957600080fd5b50600080fd5b34801561008b57600080fd5b506100aa6004803603810190808035906020019092919050505061018b565b6040518082815260200191505060405180910390f35b3480156100cc57600080fd5b506100d56102f4565b604051808273ffffffffffffffffffffffffffffffffffffffff1673ffffffffffffffffffffffffffffffffffffffff16815260200191505060405180910390f35b34801561012357600080fd5b5061012c61031a565b6040518082815260200191505060405180910390f35b61014a610360565b6040518082815260200191505060405180910390f35b34801561016c57600080fd5b5061017561045d565b6040518082815260200191505060405180910390f35b60008060003373ffffffffffffffffffffffffffffffffffffffff1673ffffffffffffffffffffffffffffffffffffffff1681526020019081526020016000205482111515156101da57600080fd5b816000803373ffffffffffffffffffffffffffffffffffffffff1673ffffffffffffffffffffffffffffffffffffffff168152602001908152602001600020600082825403925050819055503373ffffffffffffffffffffffffffffffffffffffff166108fc839081150290604051600060405180830381858888f1935050505015156102ae57816000803373ffffffffffffffffffffffffffffffffffffffff1673ffffffffffffffffffffffffffffffffffffffff168152602001908152602001600020600082825401925050819055505b6000803373ffffffffffffffffffffffffffffffffffffffff1673ffffffffffffffffffffffffffffffffffffffff168152602001908152602001600020549050919050565b600160009054906101000a900473ffffffffffffffffffffffffffffffffffffffff1681565b60008060003373ffffffffffffffffffffffffffffffffffffffff1673ffffffffffffffffffffffffffffffffffffffff16815260200190815260200160002054905090565b6000346000803373ffffffffffffffffffffffffffffffffffffffff1673ffffffffffffffffffffffffffffffffffffffff168152602001908152602001600020600082825401925050819055507fa8126f7572bb1fdeae5b5aa9ec126438b91f658a07873f009d041ae690f3a1933334604051808373ffffffffffffffffffffffffffffffffffffffff1673ffffffffffffffffffffffffffffffffffffffff1681526020018281526020019250505060405180910390a16000803373ffffffffffffffffffffffffffffffffffffffff1673ffffffffffffffffffffffffffffffffffffffff16815260200190815260200160002054905090565b60006103e86000803373ffffffffffffffffffffffffffffffffffffffff1673ffffffffffffffffffffffffffffffffffffffff168152602001908152602001600020819055506000803373ffffffffffffffffffffffffffffffffffffffff1673ffffffffffffffffffffffffffffffffffffffff168152602001908152602001600020549050905600a165627a7a7230582052f4b61f45e98f7bb5badf1394ef214ec77c0ed0f90a4199d3bc15bb7583b16a0029",
  "source": "pragma solidity ^0.4.25;\ncontract TSCBank {\n\n    mapping (address => uint) internal balances;\n    address public owner;\n    event LogDepositMade(address accountAddress, uint amount);\n    constructor() public {\n        owner = msg.sender;\n    }\n    function enroll() public returns (uint){\n      balances[msg.sender]=1000;\n      return balances[msg.sender];\n    }\n    function deposit() public payable returns (uint) {\n          balances[msg.sender] += msg.value;\n          emit LogDepositMade(msg.sender, msg.value);\n          return balances[msg.sender];\n    }\n\n    function withdraw(uint withdrawAmount) public returns (uint remainingBal) {\n\n        require(withdrawAmount <= balances[msg.sender]);\n\n        balances[msg.sender] -= withdrawAmount;\n        if(!msg.sender.send(withdrawAmount))\n        {\n            balances[msg.sender] += withdrawAmount;\n        }\n\n        remainingBal=balances[msg.sender];\n    }\n    function balance() public constant returns (uint) {\n\n        return balances[msg.sender];\n    }\n    function () public {\n        revert();\n    }\n}\n",
  "sourcePath": "/source/contracts/TSCBank.sol",
  "compiler": {
    "name": "solc",
    "version": "0.4.25+commit.59dbf8f1.Emscripten.clang"
  },
  "schemaVersion": "2.0.2",
  "updatedAt": "2020-08-11T08:58:31.577Z"
}